:020000040000FA
:100000000C9462000C948A000C948A000C948A0070
:100010000C948A000C948A000C948A000C948A0038
:100020000C948A000C948A000C948A000C948A0028
:100030000C948A000C948A000C948A000C948A0018
:100040000C9467100C948A000C94D7100C94B11087
:100050000C948A000C948A000C948A000C948A00F8
:100060000C9409110C948A00000000002400270061
:100070002A0000000000250028002B0000000000DE
:1000800023002600290004040404040404040202DA
:100090000202020203030303030301020408102007
:1000A0004080010204081020010204081020000012
:1000B0000008000201000003040700000000000027
:1000C0000000281211241FBECFEFD8E0DEBFCDBF45
:1000D00011E0A0E0B1E0ECEFFCE202C005900D926F
:1000E000A63FB107D9F727E0A6EFB1E001C01D9206
:1000F000A73EB207E1F710E0C2E6D0E004C02197C6
:10010000FE010E947616C136D107C9F70E94761308
:100110000C947C160C940000833081F028F481301C
:1001200099F08230A9F008958730A9F08830C9F09D
:100130008430B1F4809180008F7D03C08091800075
:100140008F7780938000089584B58F7784BD08955C
:1001500084B58F7DFBCF8091B0008F778093B00006
:1001600008958091B0008F7DF9CFCF93DF93282F32
:1001700030E0F901E255FF4F8491F901E656FF4F57
:10018000D491F901EA57FF4FC491CC23A1F081111A
:100190000E948C00EC2FF0E0EE0FFF1FE458FF4FA1
:1001A000A591B491EC91ED2381E090E009F480E019
:1001B000DF91CF91089580E090E0FACF1F93CF9325
:1001C000DF93282F30E0F901E255FF4F8491F901C8
:1001D000E656FF4FD491F901EA57FF4FC491CC2363
:1001E000A9F0162F81110E948C00EC2FF0E0EE0F89
:1001F000FF1FEE58FF4FA591B4918FB7F894EC9183
:10020000111108C0D095DE23DC938FBFDF91CF9111
:100210001F910895DE2BF8CFCF93DF9390E0FC0180
:10022000E656FF4F24918A579F4FFC018491882303
:10023000D1F090E0880F991FFC01E859FF4FA5917C
:10024000B491FC01EE58FF4FC591D491623071F426
:100250009FB7F8943C91822F809583238C93E881FB
:100260002E2B28839FBFDF91CF9108958FB7F894ED
:10027000EC912E2B2C938FBFF6CF3FB7F894809143
:10028000A6029091A702A091A802B091A90226B55A
:10029000A89B05C02F3F19F00196A11DB11D3FBFBE
:1002A000BA2FA92F982F8827BC01CD01620F711D8D
:1002B000811D911D42E0660F771F881F991F4A9587
:1002C000D1F708958F929F92AF92BF92CF92DF9213
:1002D000EF92FF924B015C010E943D016B017C019A
:1002E0000E943D016C197D098E099F09683E73408B
:1002F00081059105A8F321E0821A9108A108B108AF
:1003000088EEC80E83E0D81EE11CF11C8114910414
:10031000A104B10429F7FF90EF90DF90CF90BF9038
:10032000AF909F908F9008952FB7F8946091A2029C
:100330007091A3028091A4029091A5022FBF08950D
:10034000AF92BF92CF92DF92EF92FF920F931F93E3
:10035000CF93DF936C017B018B01040F151FEB0121
:100360005E01AE18BF08C017D10759F06991D601D8
:10037000ED91FC910190F081E02DC6010995892B4A
:1003800079F7C501DF91CF911F910F91FF90EF9009
:10039000DF90CF90BF90AF900895FC01538D448DB6
:1003A000252F30E0842F90E0821B930B541710F020
:1003B000CF96089501970895FC01918D828D98172D
:1003C00061F0A28DAE0FBF2FB11D5D968C91928D05
:1003D0009F5F9F73928F90E008958FEF9FEF089536
:1003E000FC01918D828D981731F0828DE80FF11DFF
:1003F000858D90E008958FEF9FEF0895FC01918D1A
:10040000228D892F90E0805C9F4F821B91098F7312
:10041000992708958AEA92E00E94FE0121E0892B43
:1004200009F420E0822F0895FC01A48DA80FB92FB4
:10043000B11DA35ABF4F2C91848D90E001968F730C
:100440009927848FA689B7892C93A089B1898C912B
:10045000837080648C93938D848D981306C002887A
:10046000F389E02D80818F7D80830895EF92FF9244
:100470000F931F93CF93DF93EC0181E0888F9B8DC7
:100480008C8D98131AC0E889F989808185FF15C081
:100490009FB7F894EE89FF896083E889F9898081A4
:1004A0008370806480839FBF81E090E0DF91CF9173
:1004B0001F910F91FF90EF900895F62E0B8D10E095
:1004C0000F5F1F4F0F731127E02E8C8D8E110CC004
:1004D0000FB607FCFACFE889F989808185FFF5CF4F
:1004E000CE010E941402F1CFEB8DEC0FFD2FF11D18
:1004F000E35AFF4FF0829FB7F8940B8FEA89FB898C
:1005000080818062CFCFCF93DF93EC01888D8823E9
:10051000B9F0AA89BB89E889F9898C9185FD03C066
:10052000808186FD0DC00FB607FCF7CF8C9185FF4B
:10053000F2CF808185FFEDCFCE010E941402E9CF7A
:10054000DF91CF91089520914B02260F3327331F5F
:1005500021323105ECF420917102FC0190E080E041
:10056000243069F082E00895A0914B022191AC0102
:10057000475D5D4FA40FB52FB11D2C9301968617D3
:1005800098F380914B02680F60934B0280E00895CE
:1005900081E00895ECEBF0E080818A7B808360E06D
:1005A00082E10E94DE0060E083E10C94DE001092A4
:1005B000710281E0809373021092720261E082E125
:1005C0000E94DE0061E083E10E94DE00E9EBF0E0E2
:1005D00080818E7F808380818D7F808388E480937B
:1005E000B80085E48093BC000895E0912102F09169
:1005F0002202309729F01092200210921F020994D3
:100600000895CF93DF93AC01E0911D02F0911E029B
:100610003097F1F090911C0280911B029817C0F066
:1006200090E0292F30E02617370754F4D901A55060
:10063000BE4F240F351FE90128812C939F5FF1CF16
:1006400010921C0260931B02CB01DF91CF910994A1
:10065000DF91CF9108950895E0911C0280911B02D3
:10066000E81730F4F0E0E550FE4F808190E0089507
:100670008FEF9FEF089590911C0280911B022FEF46
:100680003FEF981748F4E92FF0E0E550FE4F208146
:1006900030E09F5F90931C02C901089580911B0276
:1006A00090911C02891B990B0895CF93DF93CB0186
:1006B000EA01642F0E94A302CE01DF91CF91089539
:1006C000CF93DF931F92CDB7DEB7698361E0CE0190
:1006D00001960E94A30281E090E00F90DF91CF91FC
:1006E000089590E080E008959091FA01882349F000
:1006F00091110DC081E08093FA0161E08DE00C94CE
:10070000DE00992321F01092FA0160E0F7CF0895FE
:10071000CF93C82F81E00E9474030E94CA02CC23A9
:1007200031F06AEF70E080E090E00E94620180E0CA
:100730000E947403C091000110921C0210921B02CF
:100740001092200210921F020E94D70285EF92E0C1
:1007500090934A028093490281E093E090934E0285
:1007600080934D02CC0FC093BA0084EB94E0909339
:100770001E0280931D028DED9DE0909322028093D6
:10078000210280910001880F81608093BA00CF918F
:100790000895EF92FF920F931F93CF93DF93EC0195
:1007A000162F19828881853709F487C068F581374B
:1007B00009F445C0823709F453C0813561F58B8156
:1007C00092E099839C818927982789279C01245648
:1007D00031092C3A364258F5E0910101F0910201BD
:1007E000EA5DFB4F208131812817390739F02091CC
:1007F0009C0291838083226020939C0280919C02C2
:10080000816080939C0213C0893709F498C058F422
:10081000883709F455C01882DF91CF911F910F914D
:10082000FF90EF9008958A3761F18E37A1F780919C
:100830009C02111197C0806180939C02ECCF81E0F3
:1008400089839B81E0910101F0910201E85DFB4FFA
:100850008081891761F380919C0290838460D1CF5D
:1008600081E089839B81E0910101F0910201E75DC4
:10087000FB4F80818917D9F280919C029083886018
:10088000C0CF81E089832B8180910301281778F6FE
:10089000E0910101F09102018081281741F246E6C2
:1008A00054E0249FC001259F900D11248F579C4F29
:1008B0009093020180930101BACF82E08983B7CF80
:1008C00080910101909102010FB7F8947C01EFEC47
:1008D000EE1AEBEFFE0AF7012081DC01A75ABB4FAD
:1008E0002C9397974D915D916D917C9113971496F0
:1008F0002D913C91119736952795420F531F611DFD
:10090000711D94964D935D936D937C93139792977D
:100910004C919C01225A3B4FF9014083AC01415A52
:100920005B4FFA0120812F5F20830FBF865D9B4FB5
:10093000FC011082F70110828FEF8C9378CF81E059
:1009400089838B81882329F062E08CE00E940C016E
:100950006ECF61E08CE00E940C0160E08CE00E94B0
:10096000DE0065CF806568CFCF93DF93892B09F4D4
:100970004DC087E493E00E943B038093530381358D
:1009800008F447C081558E32E8F4E82FF0E0EC5FC0
:10099000FE4FC081CC23C1F110925503E091550365
:1009A000CE1790F4A3E5B3E020E0D0E0AD014355CD
:1009B00053404C175D07ECF413963C911397230FAB
:1009C0001196F4CFCFEFE8CF90911B0280911C02DB
:1009D0009817D1F087E493E00E943B039091550370
:1009E000E92FF0E0ED5AFC4F83839F5F909355030E
:1009F000D5CFF0E0ED5AFC4F8281821305C060E054
:100A000083E593E00E94C90310925503DF91CF91D3
:100A10000895C0911B0280911C02C817B9F3809100
:100A20001C02C81799F387E493E00E943B03F7CFB9
:100A3000CF93DF93FC01CB018D599F4FDB016F5F9B
:100A40007F4F2C912132B4F086179707B9F730E029
:100A500020E0A18181E08A0F8183AE0FBF2FB11DFD
:100A600012961C922F5F3F4F2031310594F3DF9196
:100A7000CF91089530E020E011968C91C18191E0F2
:100A80009C0F9183CE0FDF2FD11D8A832F5F3F4FA5
:100A90002031310561F38C91181674F3DACFDC0143
:100AA0001196EC911197AE0FB11D12967C9322E036
:100AB0002E0FDC0111962C93EF5FE80FF92FF11D3B
:100AC000628308954F925F926F927F928F929F926E
:100AD000AF92BF92CF92DF92EF92FF920F931F934C
:100AE000CF93DF93CDB7DEB7E1970FB6F894DEBFB3
:100AF0000FBECDBF8C014A0180910101909102018E
:100B0000FC01E65DFB4F70808C5B9B4FDC0118960F
:100B10008D919C91DC01ED91FC910190F081E02D93
:100B20000995811114C0E0910101F0910201EC5B83
:100B3000FB4F82899389DC01ED91FC910190F0815A
:100B4000E02D0995882309F49FC0689471F8780115
:100B5000BFEFEB1AFB0AF8018281A1E0A80FA28384
:100B6000E80FF11D73822091010130910201F9011A
:100B7000E75AFB4F958142E0480FF8014283A00FEE
:100B8000B12FB11D13969C93D901A65DBB4F509612
:100B90009C918D5F8283E40FF11D93832C5B3B4F0F
:100BA000D90118968D919C91DC01ED91FC910190F9
:100BB000F081E02D09958111DCC0E0910101F091F7
:100BC0000201EC5BFB4F82899389DC01ED91FC9182
:100BD0000190F081E02D0995882309F490C0E091FF
:100BE0000101F0910201EC5BFB4F80859185DC01F6
:100BF000ED91FC910680F781E02D099529833A83D8
:100C00004B835C836D837E838F839981F80182811E
:100C100021E0280F2283080F111DD80113969C9301
:100C20008A819B81AC81BD81B401681B790BC701AE
:100C30000E944F056E817F81C7010E944F05E091A0
:100C40000101F0910201EC5BFB4F80859185DC0195
:100C5000ED91FC910084F185E02DE1960FB6F894BA
:100C6000DEBF0FBECDBFDF91CF911F910F91FF90DF
:100C7000EF90DF90CF90BF90AF909F908F907F903C
:100C80006F905F904F900994E0910101F091020103
:100C9000EC5BFB4F80859185DC01ED91FC9106803A
:100CA000F781E02D09952BA73CA74DA75EA76FA75D
:100CB00078AB89ABCCA4DDA4EEA4FFA4E091010144
:100CC000F0910201EC5BFB4F82899389DC01ED918D
:100CD000FC910680F781E02D09952CA33DA34EA33E
:100CE0005FA368A779A78AA78DA19EA1AFA1B8A588
:100CF000C816D906EA06FB0608F427CF28CFE091EC
:100D00000101F0910201EC5BFB4F80859185DC01D4
:100D1000ED91FC910680F781E02D09952D8F3E8F96
:100D20004F8F58A369A37AA38BA34E8C5F8C68A0C6
:100D300079A0E0910101F0910201EC5BFB4F828907
:100D40009389DC01ED91FC910680F781E02D0995F6
:100D50002E8B3F8B488F598F6A8F7B8F8C8F8F891B
:100D6000988DA98DBA8D481659066A067B0608F437
:100D700036CFE0910101F0910201EC5BFB4F8289DB
:100D80009389DC01ED91FC910190F081E02D0995B2
:100D9000811184C0E0910101F0910201EC5BFB4FF5
:100DA00080859185DC01ED91FC910190F081E02D31
:100DB00009958823C9F1E0910101F0910201EC5BF2
:100DC000FB4F82899389DC01ED91FC910680F781CC
:100DD000E02D099529833A834B835C836D837E8361
:100DE0008F839981F801828121E0280F2283080FE7
:100DF000111DD80113969C938A819B81AC81BD8182
:100E0000B401681B790BC7010E944F056E817F8179
:100E1000C7010E944F05E0910101F0910201EC5BD6
:100E2000FB4F8289938913CFE0910101F091020178
:100E3000EC5BFB4F82899389DC01ED91FC9106808C
:100E4000F781E02D09952F87388B498B5A8B6B8B57
:100E50007C8B8D8B488859886A887B88E09101015A
:100E6000F0910201EC5BFB4F80859185DC01ED91F7
:100E7000FC910680F781E02D0995288739874A87FC
:100E80005B876C877D878E8789859A85AB85BC85D6
:100E9000481659066A067B0608F48DCFF801828150
:100EA00091E0980F9283080F111DD80113961C92A0
:100EB00070E060E0C7010E944F0570E060E0C7018C
:100EC000E1960FB6F894DEBF0FBECDBFDF91CF9194
:100ED0001F910F91FF90EF90DF90CF90BF90AF9058
:100EE0009F908F907F906F905F904F900C944F05E4
:100EF000CF92DF92EF92FF920F931F93CF93DF93E6
:100F0000EC018C010F5F1F4FC0900101D0900201D6
:100F1000760187EAE81A8BEFF80AF7018681EA8101
:100F200091E09E0F9A83EC0FFD2FF11D8383F70153
:100F300081819281A381B481BA01681B790BC801B8
:100F40000E944F05D601A65DBB4F11969C9111974B
:100F50008A8141E0480F4A839E01280F311DF90123
:100F600093831F962C911F9792E0980F9A83FE010E
:100F7000E40FF11D2383F70120818D5F8A83C90F60
:100F8000D11D2B8352966D917D918D919C9155979A
:100F9000C801DF91CF911F910F91FF90EF90DF90EB
:100FA000CF900C944F058D5F9B4FDC01ED91FC9130
:100FB00060817181828193810895DC011396EC91A7
:100FC000E80FF92FF11DEC5FFE4F808108950F931C
:100FD0001F93CF93DF93FC018481882311F081500C
:100FE00084838281811102C08FEF8283A281A1500C
:100FF000A283AE0FBF2FB11D15969C9115978F013F
:101000000D5F1D4F291709F440C015962C93D80188
:101010008FEF81503E91931711F08111FACFA82FD5
:10102000B0E0EF01CA0FDB1FCC5FDE4F28839217C1
:10103000B0F4A1E0A80FB0E0AC5FBE4FAE0FBF1F91
:101040008E3F19F1EF01C80FD11DCC5FDE4F9881A3
:101050002C912917D0F428839D938F5FF1CFAD5F3A
:10106000BE4FAE0FBF1F9F012D5F3E4FA217B307AC
:1010700061F08C9111969C911197981730F49C9384
:1010800011968C9311971197F1CFEF01CB5FDB4F46
:10109000888199810496DF01AD5FBB4F8A179B075A
:1010A000E1F0998388830990D881C02D48835983C2
:1010B0006A837B83E95FFB4F80818038A1F48D9147
:1010C0009C9111970496A817B90751F08D939C93A2
:1010D000DF91CF911F910F91089519830883E3CF7A
:1010E0000D931C93F5CF808191E0980F908381112F
:1010F000EFCFCD93DC93ECCF21E0FC018481811113
:1011000020E0822F08950F931F93CF93DF93EC017C
:101110008B01E881F9810280F381E02D099581112D
:101120000EC0E881F9810484F585E02DB801CE0177
:10113000099581E0DF91CF911F910F91089580E093
:10114000F9CFCF92DF92EF92FF920F931F93CF933D
:10115000DF938C010B5A1B4FD8012C912223A9F04D
:10116000F62EEFB6F8946C01B2EBCB1ABBEFDB0AAC
:10117000EC01CA5ADB4FB601888199810E9483082D
:10118000882361F0F8011082EFBEDF91CF911F91AB
:101190000F91FF90EF90DF90CF900895FF20A1F383
:1011A00088819981DC01ED91FC910480F581E02D2D
:1011B000B6010995E7CFCF92DF92EF92FF920F939E
:1011C0001F93CF93DF938C01055B1B4FD8012C91AC
:1011D0002223A9F0F62EEFB6F8946C01BCEBCB1AE3
:1011E000BBEFDB0AEC01C45BDB4FB6018881998160
:1011F0000E948308882361F0F8011082EFBEDF911E
:10120000CF911F910F91FF90EF90DF90CF900895B5
:10121000FF20A1F388819981DC01ED91FC9104808C
:10122000F581E02DB6010995E7CF2F923F924F92BD
:101230005F926F927F928F929F92AF92BF92CF9266
:10124000DF92EF92FF920F931F93CF93DF93EC0106
:101250007C010CEDE01A0BEFF00AD7018D919C9107
:10126000DC01ED91FC910280F381E02D0995F701FD
:1012700080819181DC01ED91FC910190F081E02D64
:101280000995FE01E65DFB4F5F01882309F4D8C094
:1012900071968081882309F4D3C08E01055D1B4FB0
:1012A000D8018C914E01B4ED8B1ABBEF9B0AF4016F
:1012B0008083D7018D919C91DC01ED91FC9104809C
:1012C000F581E02D0995F8018083D7018D919C91DE
:1012D000DC01ED91FC910680F781E02D09956E010E
:1012E000B3EDCB1ABBEFDB0AF60160837183828317
:1012F0009383D801EC90F4012081E21AFF089E014B
:10130000285A3B4F39011E141F0424F561E0CE0119
:101310000E94DB08D8018C91FE01EC5BFB4F8083BF
:10132000D6014D915D916D917C9141835283638390
:10133000748316821582F301808118161CF081E0F7
:101340003397808320E8E216F1046CF16FE7E62E14
:10135000F12C29C0E114F10409F4A2C061E0CE012E
:101360000E94A108D8018C91FE01E25BFB4F8083B3
:10137000D6014D915D916D917C9141835283638340
:10138000748316821582F301808187FD05C081E098
:10139000FE01E55BFB4F8083F1E8EF16FFEFFF06F0
:1013A0008CF671E8E72ED301EC9260E0CE010E944A
:1013B000DB0860E0CE010E94A108F8019081FE01E7
:1013C000E75CFB4F8081891718F4D8018C918083EA
:1013D000F8019081FE01E65CFB4F8081981718F4BC
:1013E000D8018C918083F5018081811109C0D801D9
:1013F0009C91FE01E85DFB4F8081981708F0D1C0F9
:10140000F50180818111D1C0D5018C91882309F427
:101410003FC1F8019081FE01EF5CFB4F8081D80154
:10142000891708F001C18C918083D6014D915D919F
:101430006D917C91418352836383748316821582FC
:101440000E943D01FE01E05CFB4F00811181228181
:1014500033811B012C01201A310A420A530A9201DE
:101460008101C45CDB4F088319832A833B8360833B
:10147000718382839383D5018C91DF91CF911F91EA
:101480000F91FF90EF90DF90CF90BF90AF909F9023
:101490008F907F906F905F904F903F902F90089526
:1014A0003C914E01BCEB8B1ABBEF9B0AF4012081EF
:1014B00032133EC031962081318142815381208197
:1014C0003181428153811B012C01221A330A440AC3
:1014D000550AA2019101211531054140510528F518
:1014E0002081318142815381621B730BFE01E75BD6
:1014F000FB4F7183608380819181019609F022CF37
:1015000061E0CE010E94DB08F8018081D4018C9358
:10151000F60180819181A281B381F401818392835C
:10152000A383B483168215820DCF6FEF7FEFDECFDA
:10153000D8013C914E01B2EB8B1ABBEF9B0AF40130
:1015400020813213FFCE3196208131814281538137
:1015500020813181428153811B012C01221A330ADF
:10156000440A550AA2019101211531054140510556
:10157000A8F42081318142815381621B730BFE01EB
:10158000ED5AFB4F7183608380819181019609F050
:10159000D9CE61E0CE010E94A108B6CF6FEF7FEFF8
:1015A000EECF81E0D5018C932FCFF8019081FE0121
:1015B000E75DFB4F8081981708F026CF4FB7F8946E
:1015C000BE016F5C7B4FDB018C9198968C93979753
:1015D0008D919D910D90BC91A02D9E012A5C3B4F59
:1015E000F9012081318136952795820F931FA11D26
:1015F000B11D9E01265A3B4FF90180839183A2833E
:10160000B38322523109D9018C9196968C9311960D
:101610008C918F5F8C934FBFF5011082DB011C9280
:101620008FEFF9018083F0CE9C918081981308CFD1
:101630007E01BEECEB1ABBEFFB0AF70180819181C2
:10164000A281B381F60180819181A281B381F701EA
:1016500040815181628173811C012D01241A350A58
:10166000460A570AB201A1014115510561407105B1
:1016700060F44081518162817381841B950BFE016E
:10168000EA5CFB4F91838083DBCE8FEF9FEFF7CF38
:10169000D8019C91FE01E85CFB4F8081981708F00F
:1016A000CFCE8C918083CCCE61E0FC0186810E94FC
:1016B000DE008BE193E00197F1F7089560E0FC0113
:1016C00086810E94DE008BE193E00197F1F7089597
:1016D0000F931F93CF93DF938C0160E0FC01828115
:1016E0000E94DE00CBEAD4E0CE010197F1F761E081
:1016F000F80184810E94DE00CE010197F1F760E0DD
:10170000F80184810E94DE002197F1F7DF91CF91EB
:101710001F910F9108950F931F93CF93DF938C0127
:1017200061E0FC0182810E94DE00CBEAD4E0CE01C0
:101730000197F1F761E0F80184810E94DE00CE019B
:101740000197F1F760E0F80184810E94DE002197A3
:10175000F1F7DF91CF911F910F9108955F926F92F2
:101760007F928F929F92AF92BF92CF92DF92EF9231
:10177000FF920F931F93CF93DF93EC01562E1A82A3
:101780008881843209F457C108F054C08D3009F4BF
:1017900040C1A0F5833009F488C0B8F4882309F467
:1017A0007EC08A81882309F489C1FE01339650E006
:1017B00040E090E0282F30E0421753070CF078C14A
:1017C0006191960F4F5F5F4FF7CF843009F47AC075
:1017D000853039F70E9494016B017C01BC01A601A0
:1017E000CE010E947807B701A601CE010E946205D2
:1017F00080919C02806280939C02FBC0813109F43D
:1018000041C150F48E3069F60E949401AB01BC01D5
:10181000CE010E946205EDC0823209F409C1833213
:1018200009F0BFCFE0910101F0910201E65DFB4FAD
:10183000878537C08A3309F428C1C0F4823309F49C
:10184000F0C058F4813309F0ACCFE0910101F09180
:101850000201E85DFB4F808124C0833309F4F3C0AB
:10186000893309F09ECF809103011BC08E3309F4A8
:1018700017C168F48C3309F40DC166E871E08D334B
:1018800009F08FCFCE0101960E941805B2C08F33A8
:1018900009F409C16BED71E08034A1F382CF80912E
:1018A000000191E09A838B83A4C0E0910101F09143
:1018B0000201EA5DFB4F60817181CE0101960E94B9
:1018C0004F0597C00091010110910201C8010E94CB
:1018D000540BC8010E945E0BC8010E948B0BC8010B
:1018E0000E94680BC8010E94680BC8010E94680B27
:1018F000C8010E94680B62E0F80182810E940C011D
:10190000D12CC12CF12CE12C73E2672E712C812C8F
:10191000912C54018394C3010197F1F7F80182815E
:10192000FFE0FC1508F472C00E94B500B501A401E7
:101930000C2C04C0440F551F661F771F0A94D2F762
:10194000892B09F45EC0E42AF52A61E0F80184815C
:101950000E94DE00C3010197F1F760E0F801848185
:101960000E94DE00C3010197F1F7FFEFCF1ADF0AF3
:1019700084E1C816D10479F661E0F80182810E9401
:101980000C01C8010E94540B62E070E080E090E01E
:101990000E94620160E0F80184810E94DE0060E044
:1019A000F80182810E94DE00F801EA5DFB4F808130
:1019B00091818F5D9140EA8121E02E0F2A83EC0F07
:1019C000FD2FF11D9C01369527952F71332756E089
:1019D000969587955A95E1F79695982F882797952C
:1019E0008795820F931F21E08E159F0509F020E057
:1019F000238380919C02511059C0806180939C0286
:101A0000D0CE40955095E422F5229FCF0E94B5009C
:101A10009CCF0E949401AB01BC01CE010E947807CB
:101A2000E7CEE0910101F0910201E75DFB4F13CF9A
:101A300064E275E242CFE0910101F0910201E65DBE
:101A4000FB4F80892ECF0E949401EA81DE01AE0F08
:101A5000B11D13969C93A1E0AE0FAC0FBD2FB11D2D
:101A600013968C93A2E0AE0FAC0FBD2FB11D139651
:101A70007C9384E08E0F8A83ED5FEC0FFD2FF11DC8
:101A80006383B7CF70E060E018CFE0910101F0917F
:101A90000201E1CEE0910101F0910201818101CFCB
:101AA0006EE971E0EFCE6EEB71E0ECCE8065A6CF13
:101AB0008F5F8A832C0F3D1FF90193831882DF917A
:101AC000CF911F910F91FF90EF90DF90CF90BF903B
:101AD000AF909F908F907F906F905F900895CF937D
:101AE000DF93C5E1D0E08AEA92E00E94FE01892BF3
:101AF000E9F08AEA92E00E94DC01E0916C03E111D6
:101B00002DC080936A038135B0F081558E3288F400
:101B1000E82FF0E0EC5FFE4F8081882329F01092DF
:101B20006B038F5F80936C032197E9F6DF91CF9170
:101B300008958FEFF4CF61E08AE693E00E94AE0B48
:101B400040916C03442381F350E06DE673E08AEA30
:101B500092E00E94A00110926C03E6CF20916B03EB
:101B600091E0920F90936B0330E0D901A659BC4FDE
:101B700013968C93E913D8CFAAE6B3E080E0AD01C9
:101B80004A5653404217530734F413969C911397C7
:101B9000890F1196F4CFF0E0E659FC4F928198132B
:101BA000DACF61E08AE693E00E94C903D4CF0E94B5
:101BB0000A0281110C946F0D089560E083E593E0B3
:101BC0000E94AE0B40915503442349F050E066E576
:101BD00073E087E493E00E94550310925503089543
:101BE000CF92DF92EF92FF921F93CF93DF93EC019E
:101BF0006A017B010E94540BCE010E945E0BCE0154
:101C00000E94680BCE010E948B0BCE010E94680BD4
:101C1000CE010E948B0BCE010E948B0B14E1CE01F2
:101C2000C0FE16C00E948B0BF694E794D794C7941D
:101C30001150A9F7CE010E94540B60E08A81DF9118
:101C4000CF911F91FF90EF90DF90CF900C94DE002A
:101C50000E94680BE9CF1F93CF93DF93EC010E94A2
:101C6000540BCE010E945E0BCE010E948B0BCE0165
:101C70000E948B0BCE010E948B0BCE010E948B0B1E
:101C8000CE010E948B0B14E1CE010E94680B115013
:101C9000D9F7CE010E94540B43EF5DE06DE070E098
:101CA000CE01DF91CF911F910C94F00DCF92DF9276
:101CB000EF92FF920F931F93CF93DF93EC018C0170
:101CC0000F591B4FF8018081882329F10E9494014C
:101CD000FE01EE59FB4FC080D180E280F380DC0131
:101CE000CB018C199D09AE09BF0983329105A1056D
:101CF000B10578F433E2C32ED12CE12CF12CA701ED
:101D00009601281B390B4A0B5B0BCA01B9010E94D3
:101D10006201F801108288858E3008F08E5087703D
:101D2000806480937C0080917A00806480937A0044
:101D300080917A0086FDFCCF8091780090917900A7
:101D40008115F2E09F0714F08FEF91E0959587954C
:101D5000DF91CF911F910F91FF90EF90DF90CF9087
:101D60000895CF92DF92EF92FF920F931F93CF933C
:101D7000DF93EC018B010E949401C090F601D0909A
:101D8000F701E090F801F090F901DC01CB018C192A
:101D90009D09AE09BF098E319105A105B10578F401
:101DA0005EE1C52ED12CE12CF12CA7019601281B58
:101DB000390B4A0B5B0BCA01B9010E946201FE019B
:101DC000EA5DFB4F80819181AE01405A5B4F7A0101
:101DD0008735944099F44FEF5FEF6FE070E0CE01EC
:101DE0000E94F00D81E0F7018083DF91CF911F9178
:101DF0000F91FF90EF90DF90CF900895F7018081D1
:101E0000882329F0CE010E942B0EF7011082B80121
:101E10006F5D71408B01169507950F71112726E0B4
:101E2000769567952A95E1F77695762F66277795CB
:101E30006795060F171FCE010E94540BCE010E941A
:101E40005E0BCE010E948B0BCE010E94680BCE016F
:101E50000E94680BCE010E94680BCE010E948B0B82
:101E600040E1F42ECE0100FF3AC00E948B0B169584
:101E70000795FA94F110F6CFCE010E94680BCE01BF
:101E80000E94680BCE010E94680BCE010E94680B75
:101E9000CE010E94540B62E070E080E090E00E946E
:101EA000620160E08C810E94DE0060E08A810E9415
:101EB000DE00FE01EF59FB4F81E080830E94940118
:101EC000CE59DB4F688379838A839B836093F601C5
:101ED0007093F7018093F8019093F90186CF0E94E7
:101EE000680BC5CF27E0FB01DC01129601900D9233
:101EF0002A95E1F708952FEFFC0122830895CF93EF
:101F0000DF9300D000D000D01F92CDB7DEB727E01E
:101F1000FC013296DE01119601900D922A95E1F7AF
:101F200029813A814B815C816D817E818F8190E036
:101F300027960FB6F894DEBF0FBECDBFDF91CF91CD
:101F400008950F931F93DC01FB01908112968C91F1
:101F50001297981748F487E0129601900D928A958F
:101F6000E1F71F910F910895908112968C9112972D
:101F70009813F7CF41815281638174818581968165
:101F800013960D911D912D913C911697401B510B6D
:101F9000480F591F18965C934E931797E2CFFC0198
:101FA000928181E09F3F09F480E00895FC019281D5
:101FB00081E09F3F09F080E00895FC0112820895BE
:101FC0000F931F93DC01FB01908112968C91129765
:101FD000891748F487E0129601900D928A95E1F7EF
:101FE0001F910F910895908112968C9112979813DA
:101FF000F7CF4181528163817481858196811396E7
:102000000D911D912D913C911697401B510B480F3E
:10201000591F18965C934E931797E2CFFC0192815B
:1020200081E0911101C080E00895FC01928181E07E
:10203000911180E00895CF93DF9385ED8093BC00EC
:102040008091250290912602A0912702B09128024A
:102050000796A11DB11D23E0B695A7959795879585
:102060002A95D1F72091BC0024FD03C01092710283
:102070002BC0409125025091260260912702709159
:102080002802452B462B472B69F30097A105B10584
:1020900041F02AE22A95F1F700C00197A109B109A0
:1020A000E1CF8091240291E090932302882361F094
:1020B000C091B800D091BA000E94CA020E94D70213
:1020C000D093BA00C093B800DF91CF9108951F92CA
:1020D0000F920FB60F9211242F933F938F939F93DC
:1020E000AF93BF938091A2029091A302A091A4020A
:1020F000B091A5023091A10223E0230F2D3758F5AE
:102100000196A11DB11D2093A1028093A20290937C
:10211000A302A093A402B093A5028091A60290917D
:10212000A702A091A802B091A9020196A11DB11D1C
:102130008093A6029093A702A093A802B093A9024D
:10214000BF91AF919F918F913F912F910F900FBEB3
:102150000F901F90189526E8230F0296A11DB11D20
:10216000D2CF1F920F920FB60F9211242F933F934D
:102170004F935F936F937F938F939F93AF93BF938F
:10218000EF93FF938AEA92E00E941402FF91EF918D
:10219000BF91AF919F918F917F916F915F914F917F
:1021A0003F912F910F900FBE0F901F9018951F9287
:1021B0000F920FB60F9211242F938F939F93EF934B
:1021C000FF93E091BA02F091BB028081E091C002DE
:1021D000F091C10282FD1BC090818091C3028F5F8C
:1021E0008F732091C402821741F0E091C302F0E0A6
:1021F000E655FD4F958F8093C302FF91EF919F911C
:102200008F912F910F900FBE0F901F901895808186
:10221000F4CF1F920F920FB60F9211242F933F937A
:102220004F935F936F937F938F939F93AF93BF93DE
:10223000EF93FF938091B900887F803609F44AC0FC
:10224000F0F5883209F4A7C018F5803109F49BC075
:10225000B8F4882309F4F9C0883009F494C0FF91D8
:10226000EF91BF91AF919F918F917F916F915F910E
:102270004F913F912F910F900FBE0F901F90189587
:10228000883109F488C0803251F78093700214C0FD
:10229000803409F49DC040F48033B9F38833F9F6F3
:1022A0008093700285ECB0C0803509F485C0883514
:1022B00009F496C0883499F60E941B10D0CF883953
:1022C00009F48CC038F5883729F050F4883611F0BD
:1022D000803729F683E08093710210926F0257C015
:1022E000883809F47BC0803919F0803809F0B7CFFD
:1022F00080916F02803208F071C0E0916F0281E03E
:102300008E0F80936F028091BB00F0E0E15BFD4F88
:1023100080833DC0803B39F0E0F4803A09F479C015
:10232000883A09F09CCF84E08093710210924C02AD
:1023300010924B02E0914902F0914A020995809176
:102340004B0281110FC081E080934B021092290251
:1023500009C0803C09F4A6CF883C09F4A3CF883B90
:1023600009F07DCFE0914C0281E08E0F80934C020A
:10237000F0E0E75DFD4F80818093BB0090914C02BF
:1023800080914B0229C0809196028093BB0085EC1E
:102390008093BC0064CF909195028091940298172D
:1023A00058F5E091950281E08E0F80939502F0E060
:1023B000EC58FD4F8081E9CFE091950281E08E0FCE
:1023C000809395028091BB00F0E0EC58FD4F808334
:1023D00090919502809194029817C8F285E8D8CF21
:1023E000E091950281E08E0F809395028091BB0071
:1023F000F0E0EC58FD4F80838091730281115CCF37
:1024000081E08093720284EA8093BC001092710292
:1024100026CF85EC8093BC001092710280916F02F0
:10242000803230F4E0916F02F0E0E15BFD4F10820A
:1024300060916F0270E0E0914D02F0914E028FE4E6
:1024400092E0099510926F020ACF1092700234CF79
:102450001092AD021092AC0288EE93E0A0E0B0E0E2
:102460008093AE029093AF02A093B002B093B102FA
:1024700026E331E03093AB022093AA0225EC30E052
:102480003093B7022093B60224EC30E03093B902C7
:102490002093B80220EC30E03093BB022093BA02C4
:1024A00021EC30E03093BD022093BC0222EC30E0FE
:1024B0003093BF022093BE0226EC30E03093C1027D
:1024C0002093C0021092C3021092C4021092C5025F
:1024D0001092C60210924A031092490380934B0354
:1024E00090934C03A0934D03B0934E0388E491E086
:1024F000909348038093470310926B0310926C03F0
:10250000109254031092550310928103109282038B
:102510001092840310928303109286031092850315
:10252000109288031092870310928A0310928903F5
:102530008AE591E090938C0380938B038FEF8093D7
:102540008D039FE790938E0380938F03EFE8F4E071
:1025500080E993E01292DF01A150BF4F1C928E17C9
:102560009F07C1F78EE895E090938F0780938E07C1
:1025700090939107809390071092920786E691E0DE
:102580009093940780939307109295071092960763
:1025900010929707109298071092990710929B0734
:1025A00010929A0788E791E090939D0780939C078B
:1025B0008FEF80939E0710929F071092A0071092B2
:1025C000A1071092A2071092A4071092A30728EA6D
:1025D00036E13093A8072093A70790E69093A907C8
:1025E00090E59093AA071092AB071092AC07109257
:1025F000AD071092AE071092AF071092B00710927D
:10260000B1071092B2071092B3071092B40710925C
:10261000B5071092B6071092B8071092B7078093CB
:10262000B9071092BA078093BB071092BC071092AB
:10263000BD071092BE071092BF071092C0071092FC
:10264000C1071092C2071092C3071092C4071092DC
:10265000DA071092DB071092DC071092DD07109268
:10266000DE078093DF071092E0071092E1071092D7
:10267000E2071092E3071092E4071092E507109228
:10268000E6072BE833E03093A6072093A5071092C6
:10269000C5071092C6071092C7071092C80710927C
:1026A000C9071092CB071092CA071092CC0723E9F2
:1026B00037E03093CE072093CD078093CF07109259
:1026C000D0071092D1071092D2071092D307109220
:1026D000D5071092D4071092D6078CE997E0909313
:1026E000D8078093D7071092D9070895789484B5B6
:1026F000826084BD84B5816084BD85B5826085BDFE
:1027000085B5816085BD80916E00816080936E008B
:10271000109281008091810082608093810080917D
:10272000810081608093810080918000816080932E
:1027300080008091B10084608093B1008091B000EE
:1027400081608093B00080917A00846080937A00E9
:1027500080917A00826080937A0080917A00816013
:1027600080937A0080917A00806880937A0010923A
:10277000C10061E08DE00E940C01C1E0C093030143
:1027800010928103109282038BE090E09093840377
:10279000809383038AE090E090938803809387037B
:1027A0008DE090E090938603809385038EE090E027
:1027B00090938A038093890361E08BE00E940C016F
:1027C00061E0809187030E940C0161E080918503A4
:1027D0000E940C0161E0809187030E94DE0060E0AE
:1027E000809185030E94DE0060E0809183030E9457
:1027F000DE0062E08CE00E940C0162E089E00E9451
:102800000C0162E082E00E940C0162E083E00E9421
:102810000C0162E084E00E940C0162E084E00E940E
:102820000C0162E085E00E940C0162E086E00E94FB
:102830000C0162E087E00E940C0162E088E00E94E7
:102840000C0164E670E080E090E00E94620185E0A7
:102850000E94B500892B09F004C184E00E94B500F4
:10286000019709F047C185E00E94B500892B09F066
:102870002BC188E08093000189E00E94B500019798
:10288000A9F5E091BA02F091BB0282E08083E09169
:10289000B602F091B7021082E091B802F091B9024D
:1028A00080E180831092C202E091BE02F091BF02EB
:1028B00086E08083E091BC02F091BD02808180615E
:1028C0008083E091BC02F091BD02808188608083AA
:1028D000E091BC02F091BD02808180688083E0912C
:1028E000BC02F091BD0280818F7D808380E00E94D8
:1028F000880380917A00846080937A0080917A00C6
:102900008D7F80937A0080917A008E7F80937A0009
:1029100081E893E00E942B0E6091A7077091A807B1
:1029200081E893E00E94B10E0E943D016093C107CF
:102930007093C2078093C3079093C40780ED282E3D
:1029400087E0382E412C512C882483940FEF0E946D
:1029500094016B017C0180919D0290919E02A09157
:102960009F02B091A0028C159D05AE05BF0508F031
:102970005DC18091030110E0823008F0DBC081E886
:1029800093E00E94560E282FB701A60181E893E03C
:102990000E941509782EC0910101D09102018FB7D4
:1029A000F89410919C02312F3071932E30939C0239
:1029B0008FBF5E0145ECA41A4BEFB40AD5016C90B1
:1029C00010FF38C08FB7F894FE01EA5DFB4F6081BD
:1029D00071818FBFCE010E94B10EF501808211FF7F
:1029E00029C07197108237961082379600833196EE
:1029F0001082319600833A96108237961082319673
:102A000080819181DC01ED91FC910284F385E02DC0
:102A10000995FE01E25BFB4F008337961082CA5A8C
:102A2000DB4F88819981DC01ED91FC910284F38573
:102A3000E02D0995F5018081811102C015FD80828C
:102A400080919B02882309F4CBC0992009F490C09F
:102A5000C0929702D0929802E0929902F0929A0264
:102A6000A1C086E00E94B500892B09F4F6CE87E06C
:102A70000E94B500892B09F4F0CE88E00E94B500D1
:102A8000892B09F4EACE1092000182E00E94B50081
:102A9000892B09F44CC083E00E94B500209100010D
:102AA000892B19F422602093000184E00E94B50074
:102AB00020910001892B19F424602093000180915A
:102AC00000018C5F880FD6CE86E00E94B500892B6E
:102AD00011F48AE0CFCE87E00E94B500892B11F473
:102AE0008CE0C8CE88E00E94B500892B09F0C4CEE6
:102AF0008EE0C0CE85E00E94B500892B11F480E104
:102B0000B9CE86E00E94B500892B11F482E1B2CEE5
:102B100087E00E94B500892B11F484E1ABCE88E0F8
:102B20000E94B500892B09F0A7CE86E1A3CEC09301
:102B30000001B1CF809103011817C0F426E634E0FC
:102B4000129FE001139FD00D1124CF57DC4FCE010F
:102B50000E94560E282FB701A601CE010E9415092A
:102B60000E9494016B017C011F5FE4CF712C13CF95
:102B70008091970290919802A0919902B0919A0247
:102B8000A7019601281B390B4A0B5B0BDA01C9011F
:102B900089389341A105B10528F010929B0281E08C
:102BA0000E94880359EEC51653E0D506E104F104EE
:102BB00008F584EFC81681E0D806E104F10470F14D
:102BC000C601845F914064E670E00E942C166D7F20
:102BD00081E06130710509F080E00E9474031EC03D
:102BE000662001F315FFDECF16FDDCCF41E04093F8
:102BF0009B022ECFC701B60124E130E040E050E057
:102C00000E944016672B51F481E07110E6CF9920A5
:102C1000A9F081E00E94740310929C02C0929D0270
:102C2000D0929E02E0929F02F092A0020E940A02BD
:102C3000882309F48CCE0E946F0D89CEC701B6019E
:102C4000A20191010E94401621E0672B682B692B9D
:102C500009F020E0822FC1CF97FB072E16F40094D5
:102C600007D077FD09D00E94621607FC05D03EF41C
:102C7000909581959F4F0895709561957F4F089528
:102C8000A1E21A2EAA1BBB1BFD010DC0AA1FBB1F70
:102C9000EE1FFF1FA217B307E407F50720F0A21BE2
:102CA000B30BE40BF50B661F771F881F991F1A944F
:102CB00069F760957095809590959B01AC01BD0179
:102CC000CF010895AA1BBB1B51E107C0AA1FBB1F60
:102CD000A617B70710F0A61BB70B881F991F5A95A8
:102CE000A9F780959095BC01CD010895EE0FFF1FC7
:102CF0000590F491E02D0994F894FFCF068103012B
:102D000002FFFFFFFFFFFFFFFFFFFFFFFFFFFFFFD0
:102D1000FFFFFFFFFFFFFFFFFFFFFFFFFFFFFFFFC3
:102D20000101FFFF02FFFF010101FFFFFF010000A2
:102D300000003602A001CD018302FE01DC01F0019A
:102D4000000000006003550371032B034E033B0397
:102D50002C03000000007C08E707DD07D307000014
:102D6000000015100E10E00F7F0FDD0FDD0F720F4A
:102D700000000000D60FCF0FA10F7F0F7B0F7B0F3E
:102D8000720F4649524D574152455F56455253497D
:102D90004F4E3A20312E322E30004649524D574187
:102DA00052455F4255494C44444154453A204E6F88
:102DB000762031312032303235004649524D57416C
:102DC00052455F4255494C4454494D453A203030B4
:102DD0003A33373A3438004649524D574152455FED
:102DE00050524F43545950453A2041726475696EB0
:022DF0006F0072
:107E0000112484B714BE81FFF0D085E080938100F7
:107E100082E08093C00088E18093C10086E0809377
:107E2000C20080E18093C4008EE0C9D0259A86E02C
:107E300020E33CEF91E0309385002093840096BBD3
:107E4000B09BFECF1D9AA8958150A9F7CC24DD24C4
:107E500088248394B5E0AB2EA1E19A2EF3E0BF2EE7
:107E6000A2D0813461F49FD0082FAFD0023811F036
:107E7000013811F484E001C083E08DD089C08234E0
:107E800011F484E103C0853419F485E0A6D080C0E4
:107E9000853579F488D0E82EFF2485D0082F10E0AE
:107EA000102F00270E291F29000F111F8ED06801E7
:107EB0006FC0863521F484E090D080E0DECF843638
:107EC00009F040C070D06FD0082F6DD080E0C81688
:107ED00080E7D80618F4F601B7BEE895C0E0D1E017
:107EE00062D089930C17E1F7F0E0CF16F0E7DF06D8
:107EF00018F0F601B7BEE89568D007B600FCFDCFD4
:107F0000A601A0E0B1E02C9130E011968C91119780
:107F100090E0982F8827822B932B1296FA010C0160
:107F200087BEE89511244E5F5F4FF1E0A038BF0790
:107F300051F7F601A7BEE89507B600FCFDCF97BE46
:107F4000E89526C08437B1F42ED02DD0F82E2BD052
:107F50003CD0F601EF2C8F010F5F1F4F84911BD097
:107F6000EA94F801C1F70894C11CD11CFA94CF0C13
:107F7000D11C0EC0853739F428D08EE10CD085E9AC
:107F80000AD08FE07ACF813511F488E018D01DD067
:107F900080E101D065CF982F8091C00085FFFCCF94
:107FA0009093C60008958091C00087FFFCCF809118
:107FB000C00084FD01C0A8958091C6000895E0E648
:107FC000F0E098E1908380830895EDDF803219F02E
:107FD00088E0F5DFFFCF84E1DECF1F93182FE3DFCA
:107FE0001150E9F7F2DF1F91089580E0E8DFEE27F6
:047FF000FF270994CA
:027FFE00040479
:00000001FF
